{
  "_format": "hh-sol-artifact-1",
  "contractName": "Nft",
  "sourceName": "contracts/Nft.sol",
  "abi": [
    {
      "inputs": [
        {
          "internalType": "string",
          "name": "_name",
          "type": "string"
        },
        {
          "internalType": "string",
          "name": "_symbol",
          "type": "string"
        },
        {
          "internalType": "address",
          "name": "receiver",
          "type": "address"
        },
        {
          "internalType": "string[]",
          "name": "uris",
          "type": "string[]"
        }
      ],
      "stateMutability": "nonpayable",
      "type": "constructor"
    },
    {
      "anonymous": false,
      "inputs": [
        {
          "indexed": true,
          "internalType": "address",
          "name": "owner",
          "type": "address"
        },
        {
          "indexed": true,
          "internalType": "address",
          "name": "approved",
          "type": "address"
        },
        {
          "indexed": true,
          "internalType": "uint256",
          "name": "tokenId",
          "type": "uint256"
        }
      ],
      "name": "Approval",
      "type": "event"
    },
    {
      "anonymous": false,
      "inputs": [
        {
          "indexed": true,
          "internalType": "address",
          "name": "owner",
          "type": "address"
        },
        {
          "indexed": true,
          "internalType": "address",
          "name": "operator",
          "type": "address"
        },
        {
          "indexed": false,
          "internalType": "bool",
          "name": "approved",
          "type": "bool"
        }
      ],
      "name": "ApprovalForAll",
      "type": "event"
    },
    {
      "anonymous": false,
      "inputs": [
        {
          "indexed": true,
          "internalType": "address",
          "name": "previousOwner",
          "type": "address"
        },
        {
          "indexed": true,
          "internalType": "address",
          "name": "newOwner",
          "type": "address"
        }
      ],
      "name": "OwnershipTransferred",
      "type": "event"
    },
    {
      "anonymous": false,
      "inputs": [
        {
          "indexed": true,
          "internalType": "address",
          "name": "from",
          "type": "address"
        },
        {
          "indexed": true,
          "internalType": "address",
          "name": "to",
          "type": "address"
        },
        {
          "indexed": true,
          "internalType": "uint256",
          "name": "tokenId",
          "type": "uint256"
        }
      ],
      "name": "Transfer",
      "type": "event"
    },
    {
      "inputs": [
        {
          "internalType": "address",
          "name": "to",
          "type": "address"
        },
        {
          "internalType": "uint256",
          "name": "tokenId",
          "type": "uint256"
        }
      ],
      "name": "approve",
      "outputs": [],
      "stateMutability": "nonpayable",
      "type": "function"
    },
    {
      "inputs": [
        {
          "internalType": "address",
          "name": "owner",
          "type": "address"
        }
      ],
      "name": "balanceOf",
      "outputs": [
        {
          "internalType": "uint256",
          "name": "",
          "type": "uint256"
        }
      ],
      "stateMutability": "view",
      "type": "function"
    },
    {
      "inputs": [
        {
          "internalType": "uint256",
          "name": "tokenId",
          "type": "uint256"
        }
      ],
      "name": "getApproved",
      "outputs": [
        {
          "internalType": "address",
          "name": "",
          "type": "address"
        }
      ],
      "stateMutability": "view",
      "type": "function"
    },
    {
      "inputs": [
        {
          "internalType": "address",
          "name": "owner",
          "type": "address"
        },
        {
          "internalType": "address",
          "name": "operator",
          "type": "address"
        }
      ],
      "name": "isApprovedForAll",
      "outputs": [
        {
          "internalType": "bool",
          "name": "",
          "type": "bool"
        }
      ],
      "stateMutability": "view",
      "type": "function"
    },
    {
      "inputs": [
        {
          "internalType": "address",
          "name": "receiver",
          "type": "address"
        },
        {
          "internalType": "string",
          "name": "tokenURI",
          "type": "string"
        }
      ],
      "name": "mint",
      "outputs": [
        {
          "internalType": "uint256",
          "name": "",
          "type": "uint256"
        }
      ],
      "stateMutability": "nonpayable",
      "type": "function"
    },
    {
      "inputs": [],
      "name": "name",
      "outputs": [
        {
          "internalType": "string",
          "name": "",
          "type": "string"
        }
      ],
      "stateMutability": "view",
      "type": "function"
    },
    {
      "inputs": [],
      "name": "owner",
      "outputs": [
        {
          "internalType": "address",
          "name": "",
          "type": "address"
        }
      ],
      "stateMutability": "view",
      "type": "function"
    },
    {
      "inputs": [
        {
          "internalType": "uint256",
          "name": "tokenId",
          "type": "uint256"
        }
      ],
      "name": "ownerOf",
      "outputs": [
        {
          "internalType": "address",
          "name": "",
          "type": "address"
        }
      ],
      "stateMutability": "view",
      "type": "function"
    },
    {
      "inputs": [],
      "name": "renounceOwnership",
      "outputs": [],
      "stateMutability": "nonpayable",
      "type": "function"
    },
    {
      "inputs": [
        {
          "internalType": "address",
          "name": "from",
          "type": "address"
        },
        {
          "internalType": "address",
          "name": "to",
          "type": "address"
        },
        {
          "internalType": "uint256",
          "name": "tokenId",
          "type": "uint256"
        }
      ],
      "name": "safeTransferFrom",
      "outputs": [],
      "stateMutability": "nonpayable",
      "type": "function"
    },
    {
      "inputs": [
        {
          "internalType": "address",
          "name": "from",
          "type": "address"
        },
        {
          "internalType": "address",
          "name": "to",
          "type": "address"
        },
        {
          "internalType": "uint256",
          "name": "tokenId",
          "type": "uint256"
        },
        {
          "internalType": "bytes",
          "name": "data",
          "type": "bytes"
        }
      ],
      "name": "safeTransferFrom",
      "outputs": [],
      "stateMutability": "nonpayable",
      "type": "function"
    },
    {
      "inputs": [
        {
          "internalType": "address",
          "name": "operator",
          "type": "address"
        },
        {
          "internalType": "bool",
          "name": "approved",
          "type": "bool"
        }
      ],
      "name": "setApprovalForAll",
      "outputs": [],
      "stateMutability": "nonpayable",
      "type": "function"
    },
    {
      "inputs": [
        {
          "internalType": "bytes4",
          "name": "interfaceId",
          "type": "bytes4"
        }
      ],
      "name": "supportsInterface",
      "outputs": [
        {
          "internalType": "bool",
          "name": "",
          "type": "bool"
        }
      ],
      "stateMutability": "view",
      "type": "function"
    },
    {
      "inputs": [],
      "name": "symbol",
      "outputs": [
        {
          "internalType": "string",
          "name": "",
          "type": "string"
        }
      ],
      "stateMutability": "view",
      "type": "function"
    },
    {
      "inputs": [
        {
          "internalType": "uint256",
          "name": "tokenId",
          "type": "uint256"
        }
      ],
      "name": "tokenURI",
      "outputs": [
        {
          "internalType": "string",
          "name": "",
          "type": "string"
        }
      ],
      "stateMutability": "view",
      "type": "function"
    },
    {
      "inputs": [
        {
          "internalType": "address",
          "name": "from",
          "type": "address"
        },
        {
          "internalType": "address",
          "name": "to",
          "type": "address"
        },
        {
          "internalType": "uint256",
          "name": "tokenId",
          "type": "uint256"
        }
      ],
      "name": "transferFrom",
      "outputs": [],
      "stateMutability": "nonpayable",
      "type": "function"
    },
    {
      "inputs": [
        {
          "internalType": "address",
          "name": "newOwner",
          "type": "address"
        }
      ],
      "name": "transferOwnership",
      "outputs": [],
      "stateMutability": "nonpayable",
      "type": "function"
    }
  ],
  "bytecode": "0x60806040523480156200001157600080fd5b5060405162001e1338038062001e138339810160408190526200003491620004ee565b83836200004133620000cb565b8151620000569060019060208501906200036a565b5080516200006c9060029060208401906200036a565b50505060005b8151811015620000c057620000aa838383815181106200009657620000966200062c565b60200260200101516200011b60201b60201c565b5080620000b78162000658565b91505062000072565b5050505050620006ce565b600080546001600160a01b038381166001600160a01b0319831681178455604051919092169283917f8be0079c531659141344cd1fd0a4f28419497f9722a3daafe3b4186f6b6457e09190a35050565b60006200013460086200016e60201b620008271760201c565b60006200014d60086200017760201b620008301760201c565b90506200015b84826200017b565b620001678184620002c7565b9392505050565b80546001019055565b5490565b6001600160a01b038216620001d75760405162461bcd60e51b815260206004820181905260248201527f4552433732313a206d696e7420746f20746865207a65726f206164647265737360448201526064015b60405180910390fd5b6000818152600360205260409020546001600160a01b0316156200023e5760405162461bcd60e51b815260206004820152601c60248201527f4552433732313a20746f6b656e20616c7265616479206d696e746564000000006044820152606401620001ce565b6001600160a01b03821660009081526004602052604081208054600192906200026990849062000676565b909155505060008181526003602052604080822080546001600160a01b0319166001600160a01b03861690811790915590518392907fddf252ad1be2c89b69c2b068fc378daa952ba7f163c4a11628f55a4df523b3ef908290a45050565b6000828152600360205260409020546001600160a01b0316620003445760405162461bcd60e51b815260206004820152602e60248201527f45524337323155524953746f726167653a2055524920736574206f66206e6f6e60448201526d32bc34b9ba32b73a103a37b5b2b760911b6064820152608401620001ce565b6000828152600760209081526040909120825162000365928401906200036a565b505050565b828054620003789062000691565b90600052602060002090601f0160209004810192826200039c5760008555620003e7565b82601f10620003b757805160ff1916838001178555620003e7565b82800160010185558215620003e7579182015b82811115620003e7578251825591602001919060010190620003ca565b50620003f5929150620003f9565b5090565b5b80821115620003f55760008155600101620003fa565b634e487b7160e01b600052604160045260246000fd5b604051601f8201601f191681016001600160401b038111828210171562000451576200045162000410565b604052919050565b600082601f8301126200046b57600080fd5b81516001600160401b0381111562000487576200048762000410565b60206200049d601f8301601f1916820162000426565b8281528582848701011115620004b257600080fd5b60005b83811015620004d2578581018301518282018401528201620004b5565b83811115620004e45760008385840101525b5095945050505050565b600080600080608085870312156200050557600080fd5b84516001600160401b03808211156200051d57600080fd5b6200052b8883890162000459565b95506020915081870151818111156200054357600080fd5b6200055189828a0162000459565b604089015190965090506001600160a01b03811681146200057157600080fd5b6060880151909450818111156200058757600080fd5b8701601f810189136200059957600080fd5b805182811115620005ae57620005ae62000410565b8060051b620005bf85820162000426565b918252828101850191858101908c841115620005da57600080fd5b86850192505b838310156200061b57825186811115620005fa5760008081fd5b6200060a8e898389010162000459565b8352509186019190860190620005e0565b999c989b5096995050505050505050565b634e487b7160e01b600052603260045260246000fd5b634e487b7160e01b600052601160045260246000fd5b60006000198214156200066f576200066f62000642565b5060010190565b600082198211156200068c576200068c62000642565b500190565b600181811c90821680620006a657607f821691505b60208210811415620006c857634e487b7160e01b600052602260045260246000fd5b50919050565b61173580620006de6000396000f3fe608060405234801561001057600080fd5b506004361061010b5760003560e01c8063715018a6116100a2578063b88d4fde11610071578063b88d4fde1461021b578063c87b56dd1461022e578063d0def52114610241578063e985e9c514610254578063f2fde38b1461029057600080fd5b8063715018a6146101e75780638da5cb5b146101ef57806395d89b4114610200578063a22cb4651461020857600080fd5b806323b872dd116100de57806323b872dd1461018d57806342842e0e146101a05780636352211e146101b357806370a08231146101c657600080fd5b806301ffc9a71461011057806306fdde0314610138578063081812fc1461014d578063095ea7b314610178575b600080fd5b61012361011e3660046111d0565b6102a3565b60405190151581526020015b60405180910390f35b6101406102f5565b60405161012f9190611245565b61016061015b366004611258565b610387565b6040516001600160a01b03909116815260200161012f565b61018b61018636600461128d565b6103ae565b005b61018b61019b3660046112b7565b6104c9565b61018b6101ae3660046112b7565b6104fa565b6101606101c1366004611258565b610515565b6101d96101d43660046112f3565b610575565b60405190815260200161012f565b61018b6105fb565b6000546001600160a01b0316610160565b61014061060f565b61018b61021636600461130e565b61061e565b61018b6102293660046113d6565b61062d565b61014061023c366004611258565b610665565b6101d961024f366004611452565b610776565b6101236102623660046114b4565b6001600160a01b03918216600090815260066020908152604080832093909416825291909152205460ff1690565b61018b61029e3660046112f3565b6107ae565b60006001600160e01b031982166380ac58cd60e01b14806102d457506001600160e01b03198216635b5e139f60e01b145b806102ef57506301ffc9a760e01b6001600160e01b03198316145b92915050565b606060018054610304906114e7565b80601f0160208091040260200160405190810160405280929190818152602001828054610330906114e7565b801561037d5780601f106103525761010080835404028352916020019161037d565b820191906000526020600020905b81548152906001019060200180831161036057829003601f168201915b5050505050905090565b600061039282610834565b506000908152600560205260409020546001600160a01b031690565b60006103b982610515565b9050806001600160a01b0316836001600160a01b0316141561042c5760405162461bcd60e51b815260206004820152602160248201527f4552433732313a20617070726f76616c20746f2063757272656e74206f776e656044820152603960f91b60648201526084015b60405180910390fd5b336001600160a01b038216148061044857506104488133610262565b6104ba5760405162461bcd60e51b815260206004820152603e60248201527f4552433732313a20617070726f76652063616c6c6572206973206e6f7420746f60448201527f6b656e206f776e6572206e6f7220617070726f76656420666f7220616c6c00006064820152608401610423565b6104c48383610893565b505050565b6104d33382610901565b6104ef5760405162461bcd60e51b815260040161042390611522565b6104c483838361097f565b6104c48383836040518060200160405280600081525061062d565b6000818152600360205260408120546001600160a01b0316806102ef5760405162461bcd60e51b8152602060048201526018602482015277115490cdcc8c4e881a5b9d985b1a59081d1bdad95b88125160421b6044820152606401610423565b60006001600160a01b0382166105df5760405162461bcd60e51b815260206004820152602960248201527f4552433732313a2061646472657373207a65726f206973206e6f7420612076616044820152683634b21037bbb732b960b91b6064820152608401610423565b506001600160a01b031660009081526004602052604090205490565b610603610b1b565b61060d6000610b75565b565b606060028054610304906114e7565b610629338383610bc5565b5050565b6106373383610901565b6106535760405162461bcd60e51b815260040161042390611522565b61065f84848484610c94565b50505050565b606061067082610834565b60008281526007602052604081208054610689906114e7565b80601f01602080910402602001604051908101604052809291908181526020018280546106b5906114e7565b80156107025780601f106106d757610100808354040283529160200191610702565b820191906000526020600020905b8154815290600101906020018083116106e557829003601f168201915b50505050509050600061072060408051602081019091526000815290565b9050805160001415610733575092915050565b81511561076557808260405160200161074d929190611570565b60405160208183030381529060405292505050919050565b61076e84610cc7565b949350505050565b6000610786600880546001019055565b600061079160085490565b905061079d8482610d3a565b6107a78184610e7c565b9392505050565b6107b6610b1b565b6001600160a01b03811661081b5760405162461bcd60e51b815260206004820152602660248201527f4f776e61626c653a206e6577206f776e657220697320746865207a65726f206160448201526564647265737360d01b6064820152608401610423565b61082481610b75565b50565b80546001019055565b5490565b6000818152600360205260409020546001600160a01b03166108245760405162461bcd60e51b8152602060048201526018602482015277115490cdcc8c4e881a5b9d985b1a59081d1bdad95b88125160421b6044820152606401610423565b600081815260056020526040902080546001600160a01b0319166001600160a01b03841690811790915581906108c882610515565b6001600160a01b03167f8c5be1e5ebec7d5bd14f71427d1e84f3dd0314c0f7b2291e5b200ac8c7c3b92560405160405180910390a45050565b60008061090d83610515565b9050806001600160a01b0316846001600160a01b0316148061095457506001600160a01b0380821660009081526006602090815260408083209388168352929052205460ff165b8061076e5750836001600160a01b031661096d84610387565b6001600160a01b031614949350505050565b826001600160a01b031661099282610515565b6001600160a01b0316146109f65760405162461bcd60e51b815260206004820152602560248201527f4552433732313a207472616e736665722066726f6d20696e636f72726563742060448201526437bbb732b960d91b6064820152608401610423565b6001600160a01b038216610a585760405162461bcd60e51b8152602060048201526024808201527f4552433732313a207472616e7366657220746f20746865207a65726f206164646044820152637265737360e01b6064820152608401610423565b610a63600082610893565b6001600160a01b0383166000908152600460205260408120805460019290610a8c9084906115b5565b90915550506001600160a01b0382166000908152600460205260408120805460019290610aba9084906115cc565b909155505060008181526003602052604080822080546001600160a01b0319166001600160a01b0386811691821790925591518493918716917fddf252ad1be2c89b69c2b068fc378daa952ba7f163c4a11628f55a4df523b3ef91a4505050565b6000546001600160a01b0316331461060d5760405162461bcd60e51b815260206004820181905260248201527f4f776e61626c653a2063616c6c6572206973206e6f7420746865206f776e65726044820152606401610423565b600080546001600160a01b038381166001600160a01b0319831681178455604051919092169283917f8be0079c531659141344cd1fd0a4f28419497f9722a3daafe3b4186f6b6457e09190a35050565b816001600160a01b0316836001600160a01b03161415610c275760405162461bcd60e51b815260206004820152601960248201527f4552433732313a20617070726f766520746f2063616c6c6572000000000000006044820152606401610423565b6001600160a01b03838116600081815260066020908152604080832094871680845294825291829020805460ff191686151590811790915591519182527f17307eab39ab6107e8899845ad3d59bd9653f200f220920489ca2b5937696c31910160405180910390a3505050565b610c9f84848461097f565b610cab84848484610f16565b61065f5760405162461bcd60e51b8152600401610423906115e4565b6060610cd282610834565b6000610ce960408051602081019091526000815290565b90506000815111610d0957604051806020016040528060008152506107a7565b80610d1384611023565b604051602001610d24929190611570565b6040516020818303038152906040529392505050565b6001600160a01b038216610d905760405162461bcd60e51b815260206004820181905260248201527f4552433732313a206d696e7420746f20746865207a65726f20616464726573736044820152606401610423565b6000818152600360205260409020546001600160a01b031615610df55760405162461bcd60e51b815260206004820152601c60248201527f4552433732313a20746f6b656e20616c7265616479206d696e746564000000006044820152606401610423565b6001600160a01b0382166000908152600460205260408120805460019290610e1e9084906115cc565b909155505060008181526003602052604080822080546001600160a01b0319166001600160a01b03861690811790915590518392907fddf252ad1be2c89b69c2b068fc378daa952ba7f163c4a11628f55a4df523b3ef908290a45050565b6000828152600360205260409020546001600160a01b0316610ef75760405162461bcd60e51b815260206004820152602e60248201527f45524337323155524953746f726167653a2055524920736574206f66206e6f6e60448201526d32bc34b9ba32b73a103a37b5b2b760911b6064820152608401610423565b600082815260076020908152604090912082516104c492840190611121565b60006001600160a01b0384163b1561101857604051630a85bd0160e11b81526001600160a01b0385169063150b7a0290610f5a903390899088908890600401611636565b602060405180830381600087803b158015610f7457600080fd5b505af1925050508015610fa4575060408051601f3d908101601f19168201909252610fa191810190611673565b60015b610ffe573d808015610fd2576040519150601f19603f3d011682016040523d82523d6000602084013e610fd7565b606091505b508051610ff65760405162461bcd60e51b8152600401610423906115e4565b805181602001fd5b6001600160e01b031916630a85bd0160e11b14905061076e565b506001949350505050565b6060816110475750506040805180820190915260018152600360fc1b602082015290565b8160005b8115611071578061105b81611690565b915061106a9050600a836116c1565b915061104b565b60008167ffffffffffffffff81111561108c5761108c61134a565b6040519080825280601f01601f1916602001820160405280156110b6576020820181803683370190505b5090505b841561076e576110cb6001836115b5565b91506110d8600a866116d5565b6110e39060306115cc565b60f81b8183815181106110f8576110f86116e9565b60200101906001600160f81b031916908160001a90535061111a600a866116c1565b94506110ba565b82805461112d906114e7565b90600052602060002090601f01602090048101928261114f5760008555611195565b82601f1061116857805160ff1916838001178555611195565b82800160010185558215611195579182015b8281111561119557825182559160200191906001019061117a565b506111a19291506111a5565b5090565b5b808211156111a157600081556001016111a6565b6001600160e01b03198116811461082457600080fd5b6000602082840312156111e257600080fd5b81356107a7816111ba565b60005b838110156112085781810151838201526020016111f0565b8381111561065f5750506000910152565b600081518084526112318160208601602086016111ed565b601f01601f19169290920160200192915050565b6020815260006107a76020830184611219565b60006020828403121561126a57600080fd5b5035919050565b80356001600160a01b038116811461128857600080fd5b919050565b600080604083850312156112a057600080fd5b6112a983611271565b946020939093013593505050565b6000806000606084860312156112cc57600080fd5b6112d584611271565b92506112e360208501611271565b9150604084013590509250925092565b60006020828403121561130557600080fd5b6107a782611271565b6000806040838503121561132157600080fd5b61132a83611271565b91506020830135801515811461133f57600080fd5b809150509250929050565b634e487b7160e01b600052604160045260246000fd5b600067ffffffffffffffff8084111561137b5761137b61134a565b604051601f8501601f19908116603f011681019082821181831017156113a3576113a361134a565b816040528093508581528686860111156113bc57600080fd5b858560208301376000602087830101525050509392505050565b600080600080608085870312156113ec57600080fd5b6113f585611271565b935061140360208601611271565b925060408501359150606085013567ffffffffffffffff81111561142657600080fd5b8501601f8101871361143757600080fd5b61144687823560208401611360565b91505092959194509250565b6000806040838503121561146557600080fd5b61146e83611271565b9150602083013567ffffffffffffffff81111561148a57600080fd5b8301601f8101851361149b57600080fd5b6114aa85823560208401611360565b9150509250929050565b600080604083850312156114c757600080fd5b6114d083611271565b91506114de60208401611271565b90509250929050565b600181811c908216806114fb57607f821691505b6020821081141561151c57634e487b7160e01b600052602260045260246000fd5b50919050565b6020808252602e908201527f4552433732313a2063616c6c6572206973206e6f7420746f6b656e206f776e6560408201526d1c881b9bdc88185c1c1c9bdd995960921b606082015260800190565b600083516115828184602088016111ed565b8351908301906115968183602088016111ed565b01949350505050565b634e487b7160e01b600052601160045260246000fd5b6000828210156115c7576115c761159f565b500390565b600082198211156115df576115df61159f565b500190565b60208082526032908201527f4552433732313a207472616e7366657220746f206e6f6e20455243373231526560408201527131b2b4bb32b91034b6b83632b6b2b73a32b960711b606082015260800190565b6001600160a01b038581168252841660208201526040810183905260806060820181905260009061166990830184611219565b9695505050505050565b60006020828403121561168557600080fd5b81516107a7816111ba565b60006000198214156116a4576116a461159f565b5060010190565b634e487b7160e01b600052601260045260246000fd5b6000826116d0576116d06116ab565b500490565b6000826116e4576116e46116ab565b500690565b634e487b7160e01b600052603260045260246000fdfea2646970667358221220209f393360ea813f0962db8ba471d9216ab34b93de0fbae6a710b393fae80bc364736f6c63430008090033",
  "linkReferences": {},
  "deployedLinkReferences": {}
}